{"abi":[{"type":"constructor","inputs":[{"name":"_revealVerifier","type":"address","internalType":"address"},{"name":"_initialPlayer","type":"tuple","internalType":"struct Player","components":[{"name":"addr","type":"address","internalType":"address"},{"name":"publicKey","type":"tuple","internalType":"struct Point","components":[{"name":"x","type":"uint256","internalType":"uint256"},{"name":"y","type":"uint256","internalType":"uint256"}]}]}],"stateMutability":"nonpayable"},{"type":"function","name":"_bets","inputs":[{"name":"","type":"address","internalType":"address"}],"outputs":[{"name":"","type":"uint256","internalType":"uint256"}],"stateMutability":"view"},{"type":"function","name":"_communityCards","inputs":[{"name":"","type":"uint256","internalType":"uint256"}],"outputs":[{"name":"","type":"uint8","internalType":"uint8"}],"stateMutability":"view"},{"type":"function","name":"_currentRound","inputs":[],"outputs":[{"name":"","type":"uint8","internalType":"enum GameRound"}],"stateMutability":"view"},{"type":"function","name":"_gameStarted","inputs":[],"outputs":[{"name":"","type":"bool","internalType":"bool"}],"stateMutability":"view"},{"type":"function","name":"_highestBet","inputs":[],"outputs":[{"name":"","type":"uint256","internalType":"uint256"}],"stateMutability":"view"},{"type":"function","name":"_isFolded","inputs":[{"name":"","type":"address","internalType":"address"}],"outputs":[{"name":"","type":"bool","internalType":"bool"}],"stateMutability":"view"},{"type":"function","name":"_isPlayer","inputs":[{"name":"","type":"address","internalType":"address"}],"outputs":[{"name":"","type":"bool","internalType":"bool"}],"stateMutability":"view"},{"type":"function","name":"_nextBet","inputs":[],"outputs":[{"name":"","type":"uint8","internalType":"uint8"}],"stateMutability":"view"},{"type":"function","name":"_nextCard","inputs":[],"outputs":[{"name":"","type":"uint8","internalType":"uint8"}],"stateMutability":"view"},{"type":"function","name":"_playerCards","inputs":[{"name":"","type":"uint256","internalType":"uint256"},{"name":"","type":"uint256","internalType":"uint256"}],"outputs":[{"name":"","type":"uint8","internalType":"uint8"}],"stateMutability":"view"},{"type":"function","name":"_players","inputs":[{"name":"","type":"uint256","internalType":"uint256"}],"outputs":[{"name":"addr","type":"address","internalType":"address"},{"name":"publicKey","type":"tuple","internalType":"struct Point","components":[{"name":"x","type":"uint256","internalType":"uint256"},{"name":"y","type":"uint256","internalType":"uint256"}]}],"stateMutability":"view"},{"type":"function","name":"_revealTokens","inputs":[{"name":"","type":"uint256","internalType":"uint256"},{"name":"","type":"uint256","internalType":"uint256"}],"outputs":[{"name":"player","type":"address","internalType":"address"},{"name":"token","type":"tuple","internalType":"struct Point","components":[{"name":"x","type":"uint256","internalType":"uint256"},{"name":"y","type":"uint256","internalType":"uint256"}]}],"stateMutability":"view"},{"type":"function","name":"_revealTokensForUser","inputs":[{"name":"","type":"uint256","internalType":"uint256"},{"name":"","type":"address","internalType":"address"}],"outputs":[{"name":"player","type":"address","internalType":"address"},{"name":"token","type":"tuple","internalType":"struct Point","components":[{"name":"x","type":"uint256","internalType":"uint256"},{"name":"y","type":"uint256","internalType":"uint256"}]}],"stateMutability":"view"},{"type":"function","name":"_shuffled","inputs":[{"name":"","type":"address","internalType":"address"}],"outputs":[{"name":"","type":"bool","internalType":"bool"}],"stateMutability":"view"},{"type":"function","name":"_totalFolds","inputs":[],"outputs":[{"name":"","type":"uint256","internalType":"uint256"}],"stateMutability":"view"},{"type":"function","name":"_totalPlayers","inputs":[],"outputs":[{"name":"","type":"uint8","internalType":"uint8"}],"stateMutability":"view"},{"type":"function","name":"_totalShuffles","inputs":[],"outputs":[{"name":"","type":"uint256","internalType":"uint256"}],"stateMutability":"view"},{"type":"function","name":"_weights","inputs":[{"name":"","type":"uint256","internalType":"uint256"}],"outputs":[{"name":"","type":"uint256","internalType":"uint256"}],"stateMutability":"view"},{"type":"function","name":"addMultipleRevealTokens","inputs":[{"name":"indexes","type":"uint8[]","internalType":"uint8[]"},{"name":"revealTokens","type":"tuple[]","internalType":"struct Shuffle.RevealToken[]","components":[{"name":"player","type":"address","internalType":"address"},{"name":"token","type":"tuple","internalType":"struct Point","components":[{"name":"x","type":"uint256","internalType":"uint256"},{"name":"y","type":"uint256","internalType":"uint256"}]}]}],"outputs":[],"stateMutability":"nonpayable"},{"type":"function","name":"addRevealToken","inputs":[{"name":"index","type":"uint8","internalType":"uint8"},{"name":"revealToken","type":"tuple","internalType":"struct Shuffle.RevealToken","components":[{"name":"player","type":"address","internalType":"address"},{"name":"token","type":"tuple","internalType":"struct Point","components":[{"name":"x","type":"uint256","internalType":"uint256"},{"name":"y","type":"uint256","internalType":"uint256"}]}]}],"outputs":[],"stateMutability":"nonpayable"},{"type":"function","name":"chooseCards","inputs":[{"name":"cards","type":"uint8[3]","internalType":"uint8[3]"}],"outputs":[],"stateMutability":"nonpayable"},{"type":"function","name":"deck","inputs":[{"name":"","type":"uint256","internalType":"uint256"},{"name":"","type":"uint256","internalType":"uint256"}],"outputs":[{"name":"","type":"uint256","internalType":"uint256"}],"stateMutability":"view"},{"type":"function","name":"declareWinner","inputs":[],"outputs":[],"stateMutability":"nonpayable"},{"type":"function","name":"fold","inputs":[],"outputs":[],"stateMutability":"nonpayable"},{"type":"function","name":"gameKey","inputs":[],"outputs":[{"name":"x","type":"uint256","internalType":"uint256"},{"name":"y","type":"uint256","internalType":"uint256"}],"stateMutability":"view"},{"type":"function","name":"getAllWeights","inputs":[],"outputs":[{"name":"","type":"tuple[]","internalType":"struct PlayerWitWeight[]","components":[{"name":"addr","type":"address","internalType":"address"},{"name":"weight","type":"uint256","internalType":"uint256"}]}],"stateMutability":"view"},{"type":"function","name":"getCommunityCards","inputs":[],"outputs":[{"name":"","type":"uint8[5]","internalType":"uint8[5]"}],"stateMutability":"view"},{"type":"function","name":"getDeck","inputs":[],"outputs":[{"name":"","type":"uint256[4][]","internalType":"uint256[4][]"}],"stateMutability":"view"},{"type":"function","name":"getPendingCommunityRevealTokens","inputs":[{"name":"user","type":"address","internalType":"address"}],"outputs":[{"name":"","type":"uint8[]","internalType":"uint8[]"}],"stateMutability":"view"},{"type":"function","name":"getPendingPlayerRevealTokens","inputs":[{"name":"user","type":"address","internalType":"address"}],"outputs":[{"name":"","type":"uint8[]","internalType":"uint8[]"}],"stateMutability":"view"},{"type":"function","name":"getPlayer","inputs":[{"name":"addr","type":"address","internalType":"address"}],"outputs":[{"name":"","type":"tuple","internalType":"struct Player","components":[{"name":"addr","type":"address","internalType":"address"},{"name":"publicKey","type":"tuple","internalType":"struct Point","components":[{"name":"x","type":"uint256","internalType":"uint256"},{"name":"y","type":"uint256","internalType":"uint256"}]}]}],"stateMutability":"view"},{"type":"function","name":"getPlayerCards","inputs":[{"name":"player","type":"address","internalType":"address"}],"outputs":[{"name":"","type":"uint8[5]","internalType":"uint8[5]"}],"stateMutability":"view"},{"type":"function","name":"getPlayerRevealedCards","inputs":[{"name":"player","type":"address","internalType":"address"}],"outputs":[{"name":"","type":"uint8[]","internalType":"uint8[]"}],"stateMutability":"view"},{"type":"function","name":"getPlayerWeight","inputs":[{"name":"player","type":"address","internalType":"address"}],"outputs":[{"name":"","type":"uint256","internalType":"uint256"}],"stateMutability":"view"},{"type":"function","name":"getPlayersInGame","inputs":[],"outputs":[{"name":"","type":"tuple[]","internalType":"struct Player[]","components":[{"name":"addr","type":"address","internalType":"address"},{"name":"publicKey","type":"tuple","internalType":"struct Point","components":[{"name":"x","type":"uint256","internalType":"uint256"},{"name":"y","type":"uint256","internalType":"uint256"}]}]}],"stateMutability":"view"},{"type":"function","name":"getPotAmount","inputs":[],"outputs":[{"name":"","type":"uint256","internalType":"uint256"}],"stateMutability":"view"},{"type":"function","name":"getPublicKeyCommitment","inputs":[],"outputs":[{"name":"","type":"uint256[]","internalType":"uint256[]"}],"stateMutability":"view"},{"type":"function","name":"getRevealPoints","inputs":[{"name":"index","type":"uint8","internalType":"uint8"}],"outputs":[{"name":"","type":"tuple[]","internalType":"struct Point[]","components":[{"name":"x","type":"uint256","internalType":"uint256"},{"name":"y","type":"uint256","internalType":"uint256"}]}],"stateMutability":"view"},{"type":"function","name":"getRevealTokens","inputs":[{"name":"index","type":"uint8","internalType":"uint8"}],"outputs":[{"name":"","type":"tuple[]","internalType":"struct Shuffle.RevealToken[]","components":[{"name":"player","type":"address","internalType":"address"},{"name":"token","type":"tuple","internalType":"struct Point","components":[{"name":"x","type":"uint256","internalType":"uint256"},{"name":"y","type":"uint256","internalType":"uint256"}]}]}],"stateMutability":"view"},{"type":"function","name":"getRevealedCommunityCards","inputs":[],"outputs":[{"name":"","type":"uint8[]","internalType":"uint8[]"}],"stateMutability":"view"},{"type":"function","name":"hasRevealToken","inputs":[{"name":"index","type":"uint8","internalType":"uint8"},{"name":"user","type":"address","internalType":"address"}],"outputs":[{"name":"","type":"bool","internalType":"bool"}],"stateMutability":"view"},{"type":"function","name":"initShuffle","inputs":[{"name":"_publicKeyCommitment","type":"uint256[]","internalType":"uint256[]"},{"name":"_newDeck","type":"uint256[4][52]","internalType":"uint256[4][52]"}],"outputs":[],"stateMutability":"nonpayable"},{"type":"function","name":"joinGame","inputs":[{"name":"_player","type":"tuple","internalType":"struct Player","components":[{"name":"addr","type":"address","internalType":"address"},{"name":"publicKey","type":"tuple","internalType":"struct Point","components":[{"name":"x","type":"uint256","internalType":"uint256"},{"name":"y","type":"uint256","internalType":"uint256"}]}]}],"outputs":[],"stateMutability":"nonpayable"},{"type":"function","name":"nextPlayer","inputs":[],"outputs":[{"name":"","type":"tuple","internalType":"struct Player","components":[{"name":"addr","type":"address","internalType":"address"},{"name":"publicKey","type":"tuple","internalType":"struct Point","components":[{"name":"x","type":"uint256","internalType":"uint256"},{"name":"y","type":"uint256","internalType":"uint256"}]}]}],"stateMutability":"view"},{"type":"function","name":"placeBet","inputs":[{"name":"_amount","type":"uint256","internalType":"uint256"}],"outputs":[],"stateMutability":"nonpayable"},{"type":"function","name":"publicKeyCommitment","inputs":[{"name":"","type":"uint256","internalType":"uint256"}],"outputs":[{"name":"","type":"uint256","internalType":"uint256"}],"stateMutability":"view"},{"type":"function","name":"revealCard","inputs":[{"name":"index","type":"uint8","internalType":"uint8"}],"outputs":[{"name":"","type":"uint8","internalType":"uint8"}],"stateMutability":"view"},{"type":"function","name":"revealMultiple","inputs":[{"name":"indexes","type":"uint8[]","internalType":"uint8[]"}],"outputs":[{"name":"","type":"uint8[]","internalType":"uint8[]"}],"stateMutability":"view"},{"type":"function","name":"revealMultipleCards","inputs":[{"name":"indexes","type":"uint8[5]","internalType":"uint8[5]"}],"outputs":[{"name":"","type":"uint8[5]","internalType":"uint8[5]"}],"stateMutability":"view"},{"type":"function","name":"revealVerifier","inputs":[],"outputs":[{"name":"","type":"address","internalType":"contract ZgRevealVerifier"}],"stateMutability":"view"},{"type":"function","name":"shuffle","inputs":[{"name":"_newDeck","type":"uint256[4][52]","internalType":"uint256[4][52]"}],"outputs":[],"stateMutability":"nonpayable"},{"type":"function","name":"startGame","inputs":[],"outputs":[],"stateMutability":"nonpayable"},{"type":"function","name":"winner","inputs":[],"outputs":[{"name":"addr","type":"address","internalType":"address"},{"name":"publicKey","type":"tuple","internalType":"struct Point","components":[{"name":"x","type":"uint256","internalType":"uint256"},{"name":"y","type":"uint256","internalType":"uint256"}]}],"stateMutability":"view"},{"type":"error","name":"AlreadyAPlayer","inputs":[]},{"type":"error","name":"AlreadyFolded","inputs":[]},{"type":"error","name":"AlreadyShuffled","inputs":[]},{"type":"error","name":"DuplicateCommunityCard","inputs":[]},{"type":"error","name":"GameAlreadyStarted","inputs":[]},{"type":"error","name":"GameEnded","inputs":[]},{"type":"error","name":"GameNotEnded","inputs":[]},{"type":"error","name":"GameNotStarted","inputs":[]},{"type":"error","name":"InvalidBetAmount","inputs":[]},{"type":"error","name":"InvalidBetSequence","inputs":[]},{"type":"error","name":"LastRound","inputs":[]},{"type":"error","name":"NotACommunityCard","inputs":[]},{"type":"error","name":"NotAPlayer","inputs":[]},{"type":"error","name":"NotEnoughPlayers","inputs":[]},{"type":"error","name":"NotEqualIndexesAndRevealTokens","inputs":[]},{"type":"error","name":"NotShuffled","inputs":[]},{"type":"error","name":"PlayerFolded","inputs":[]},{"type":"error","name":"RevealTokenAlreadyExists","inputs":[]},{"type":"error","name":"RevealTokenVerificationError","inputs":[]},{"type":"error","name":"ShuffleVerificationError","inputs":[]},{"type":"error","name":"WinnerAlreadyDeclared","inputs":[]}],"bytecode":{"object":"0x60806040523461014f57604051612f6f38819003601f8101601f191683016001600160401b0381118482101761015357839282916040528339810103906080821261014f5761004d81610186565b906060601f1984011261014f576040610064610167565b9361007160208401610186565b8552603f19011261014f576060610086610167565b9160408101518352015160208201526020830190815260ff600b54165f5260096020526002602060405f209260018060a01b0386511660018060a01b03198554161784555180516001850155015191015560018060a01b031660018060a01b03195f5416175f55600b5460ff811660ff811461013b57600160ff9101169060ff191617600b5560018060a01b039051165f52600a60205260405f20600160ff19825416179055604051612dd4908161019b8239f35b634e487b7160e01b5f52601160045260245ffd5b5f80fd5b634e487b7160e01b5f52604160045260245ffd5b60408051919082016001600160401b0381118382101761015357604052565b51906001600160a01b038216820361014f5756fe60806040526004361015610011575f80fd5b5f3560e01c806302ccf95b1461231357806303fac106146122e757806304a93605146122b3578063074a13b4146121c757806310fe7c4814611ebf578063120b752714611e9157806314034bd2146119d257806314debffe146119415780631a6dab9214611739578063201de7251461170357806321cff78b1461167c5780632658e4d91461163f578063339434741461153957806333d4a7971461151557806333f1c820146113545780633652ebc9146112df578063398cedf4146112a25780633ff242e61461117657806340b5527414611159578063415878231461112057806343453d4d14611077578063435c087814611055578063489f29d414610fb35780635c12cd4b14610f695780636389898814610f475780636eed8b4214610eac578063708ac02f14610dd157806374844e1914610d6a578063757cde8e14610d4057806375ad617814610c16578063793c638314610bf95780637a17557414610bc1578063812b548814610ba157806383aff57a14610b8157806387d6836714610b49578063883984d114610b0c578063912381b614610ac657806392861cb61461096b578063ad5c21d914610916578063ae4d9dc7146108f6578063c17573f214610853578063c591244714610816578063d298a6d8146107f9578063d34544cd146107bf578063d65ab5f21461067f578063dd34d7321461063d578063df080a3514610616578063dfbf53ae146105b8578063e684f46a14610529578063e7cda31c146104ae578063f1169f471461030a578063f3f03a61146102e05763f9be6dc014610260575f80fd5b346102dc5760403660031901126102dc5761027961235b565b6004355f52600660205260405f209060018060a01b03165f5260205260405f206102ae6001808060a01b0383541692016124b6565b604080516001600160a01b0390931683528151602080850191909152909101519082015280606081015b0390f35b5f80fd5b346102dc5760203660031901126102dc576004355f52600c602052602060405f2054604051908152f35b346102dc5760203660031901126102dc57610323612345565b600b549060ff82169160011b6101fe60fe82169116810361049a57610347906127fb565b5f929091906001600160a01b038216845b82811061036d57604051806102d8878261244a565b5f818152600960205260409020546001600160a01b0316821461040657805f52601660205261039e60405f20612766565b5f5b600281106103b45750506001905b01610358565b6103cb8660ff6103c4848661282d565b51166127cd565b156103d9575b6001016103a0565b966103fe60019160ff6103ec8b8661282d565b51166103f8828b612752565b52612a7f565b9790506103d1565b60ff60135460081c16600681101561048657600514610428575b6001906103ae565b805f52601660205261043c60405f20612766565b5f5b6002811061044d575050610420565b61045d8660ff6103c4848661282d565b1561046b575b60010161043e565b9661047e60019160ff6103ec8b8661282d565b979050610463565b634e487b7160e01b5f52602160045260245ffd5b634e487b7160e01b5f52601160045260245ffd5b346102dc575f3660031901126102dc576104c6612a9a565b6040518091602082016020835281518091526020604084019201905f5b8181106104f1575050500390f35b825180516001600160a01b031685526020908101518051828701528101516040860152869550606090940193909201916001016104e3565b346102dc575f3660031901126102dc57335f52600a60205260ff60405f205416156105a95761055733612bbf565b61055f612bf6565b335f52601460205260ff60405f20541661059a57335f52601460205260405f20600160ff19825416179055610595601554612a7f565b601555005b633deab74560e11b5f5260045ffd5b63abca351760e01b5f5260045ffd5b346102dc575f3660031901126102dc57600d54604051906001600160a01b03166105e182612371565b600e548252600f546020808401918252604080516001600160a01b039490941684529351908301525191810191909152606090f35b346102dc575f3660031901126102dc575f546040516001600160a01b039091168152602090f35b346102dc5761064b36612544565b905f52601660205260405f209060058110156102dc5761066f60ff916020936124ec565b90549060031b1c16604051908152f35b346102dc575f3660031901126102dc5760135460ff81166107b05760ff600b541690600282106107a15760ff19166001176013556106bc8161296f565b905f5b81811061076c575f546040805163f668237d60e01b8152602060048201529182906001600160a01b031681806106f8602482018a612505565b03915afa8015610761575f90610717575b805160015560200151600255005b506040813d604011610759575b816107316040938361238d565b810103126102dc57602090816040519161074a83612371565b80518352015182820152610709565b3d9150610724565b6040513d5f823e3d90fd5b806001915f5260096020526107858260405f20016124b6565b61078f8286612752565b5261079a8185612752565b50016106bf565b63f770074360e01b5f5260045ffd5b63ba26162b60e01b5f5260045ffd5b346102dc576107cd36612544565b906003548110156102dc576107e190612573565b509060048110156102dc576020910154604051908152f35b346102dc575f3660031901126102dc576020601554604051908152f35b346102dc5760203660031901126102dc576004356004548110156102dc5760209060045f525f516020612d7f5f395f51905f520154604051908152f35b346102dc575f3660031901126102dc576040518060206004549283815201809260045f525f516020612d7f5f395f51905f52905f5b8181106108e0575050508161089e91038261238d565b604051918291602083019060208452518091526040830191905f5b8181106108c7575050500390f35b82518452859450602093840193909201916001016108b9565b8254845260209093019260019283019201610888565b346102dc575f3660031901126102dc57602060ff600b5416604051908152f35b346102dc5760203660031901126102dc57610949610932612345565b60a0604051610941828261238d565b369037612b72565b5f5260166020526102d861095f60405f20612766565b60405191829182612486565b346102dc5760403660031901126102dc5760043567ffffffffffffffff81116102dc5761099c9036906004016123e5565b6024359067ffffffffffffffff82116102dc57366023830112156102dc5781600401359167ffffffffffffffff83116102dc5736602460608502830101116102dc57335f52600a60205260ff60405f205416156105a95782825103610ab7575f5b82519060ff811691821015610ab55760ff610a188386612752565b51169185811015610aa157606002830160231981360301606081126102dc5760405190610a4482612371565b6024830135906001600160a01b03821682036102dc576040918352601f1901126102dc57610a9c93610a9792606460405191610a7f83612371565b60448101358352013560208201526020830152612c2b565b612621565b6109fd565b634e487b7160e01b5f52603260045260245ffd5b005b637c7e82a760e01b5f5260045ffd5b346102dc57610ad436612544565b905f52600560205260405f209081548110156102dc57610af39161255a565b5080546001600160a01b0316906102ae906001016124b6565b346102dc5760203660031901126102dc576001600160a01b03610b2d612345565b165f526007602052602060ff60405f2054166040519015158152f35b346102dc5760203660031901126102dc576001600160a01b03610b6a612345565b165f526010602052602060405f2054604051908152f35b346102dc575f3660031901126102dc57602060ff60185416604051908152f35b346102dc575f3660031901126102dc57602060ff60115416604051908152f35b346102dc5760203660031901126102dc576102d8610be5610be06123af565b6129ca565b604051918291602083526020830190612505565b346102dc575f3660031901126102dc576020601254604051908152f35b346102dc575f3660031901126102dc5760ff600b5416610c35816123cd565b90610c43604051928361238d565b808252601f19610c52826123cd565b015f5b818110610d1d5750505f5b60ff811682811015610cc35760ff91610cbb826001935f526009602052838060a01b0360405f205416815f52600c60205260405f205460405191610ca383612371565b82526020820152610cb48289612752565b5286612752565b500116610c60565b836040518091602082016020835281518091526020604084019201905f5b818110610cef575050500390f35b825180516001600160a01b031685526020908101518186015286955060409094019390920191600101610ce1565b602090604051610d2c81612371565b5f81525f8382015282828701015201610c55565b346102dc5760203660031901126102dc5760043560058110156102dc5760ff61066f6020926124d4565b346102dc575f3660031901126102dc5760a0604051610d89828261238d565b3690376102d860405160ff6017548181168352818160081c166020840152818160101c166040840152818160181c16606084015260201c16608082015261095f60a08261238d565b346102dc5760203660031901126102dc5760ff610dec6123af565b165f52600560205260405f20805490610e04826123cd565b91610e12604051938461238d565b8083526020830180925f5260205f205f915b838310610e8e578486604051918291602083019060208452518091526040830191905f5b818110610e56575050500390f35b825180516001600160a01b03168552602090810151805182870152810151604086015286955060609094019390920191600101610e48565b60036020600192610e9e856125ba565b815201920192019190610e24565b346102dc575f3660031901126102dc57604051610eca60c08261238d565b6005815260a03660208301375f5b60ff81166005811015610f39578160019160ff610ef581956124d4565b90549060031b1c16610f0a575b500116610ed8565b83610f2f610f2882610f1b866124d4565b90549060031b1c1661263f565b9287612752565b9116905284610f02565b604051806102d8858261244a565b346102dc575f3660031901126102dc576020610f6161291b565b604051908152f35b346102dc5760203660031901126102dc576060610f8c610f87612345565b6128a4565b6040805182516001600160a01b031681526020928301518051848301529092015190820152f35b346102dc5760203660031901126102dc57610fd4610fcf612345565b612b72565b604051610fe260c08261238d565b6005815260a03660208301375f5b60ff81166005811015610f395760ff91600191855f526016602052836110198360405f206124ec565b90549060031b1c1661102e575b500116610ff0565b855f5260166020528361104b610f2882610f1b8660405f206124ec565b9116905285611026565b346102dc575f3660031901126102dc57602060ff601354166040519015158152f35b346102dc5760203660031901126102dc57611090612345565b60405161109e60c08261238d565b6005815260a03660208301375f5b60ff81166005811015610f39578160019160ff6110c981956124d4565b90549060031b1c166110de575b5001166110ac565b6110f986856110ec856124d4565b90549060031b1c166127cd565b6110d6576111198461110a846124d4565b90549060031b1c169186612752565b52856110d6565b346102dc5760203660031901126102dc576004355f90815260096020526040902080546001600160a01b0316906102ae906001016124b6565b346102dc575f3660031901126102dc576020600854604051908152f35b346102dc57611a003660031901126102dc5736611a04116102dc57335f52600a60205260ff60405f205416156105a957600354603481036102dc5760346003558060341061123c575b50600460035f525f516020612d5f5f395f51905f525f915b60348310611208576111ea600854612a7f565b600855335f908152600760205260409020805460ff19166001179055005b805f5b6004811061122857505060046080600192019201920191906111d7565b81358482015560209091019060010161120b565b6001600160fe1b038116810361049a5760021b5f516020612d5f5f395f51905f52017fc2575a0e9e593c00f959f8c92f12db2869c3395a3b0502d05e2516446f71f92b5b81811061128d57506111bf565b8061129c600480930182612c15565b01611280565b346102dc5760203660031901126102dc576001600160a01b036112c3612345565b165f52600a602052602060ff60405f2054166040519015158152f35b346102dc5760a03660031901126102dc5736602312156102dc5760405161130760a08261238d565b803660a4116102dc576004905b60a48210611328576102d861095f8461283e565b60208091611335846123bf565b815201910190611314565b634e487b7160e01b5f52604160045260245ffd5b346102dc57611a203660031901126102dc5760043567ffffffffffffffff81116102dc57366023820112156102dc5780600401359067ffffffffffffffff82116102dc573660248360051b830101116102dc5736611a24116102dc57335f52600a60205260ff60405f205416156105a9576003546034600355806034106114af575b505f516020612d5f5f395f51905f525f60245b6034821061147b57505050600160401b8211611340576024906004548360045580841061144d575b50019060045f525f5b81811061142c576111ea600854612a7f565b60019060208435940193815f516020612d7f5f395f51905f5201550161141a565b611475905f516020612d7f5f395f51905f5201845f516020612d7f5f395f51905f5201612c15565b83611411565b805f5b6004811061149b57505060046080600192019301910190916113e9565b60019060208335930192818701550161147e565b6001600160fe1b038116810361049a5760021b5f516020612d5f5f395f51905f52017fc2575a0e9e593c00f959f8c92f12db2869c3395a3b0502d05e2516446f71f92b5b81811061150057506113d6565b8061150f600480930182612c15565b016114f3565b346102dc575f3660031901126102dc57604060015460025482519182526020820152f35b346102dc575f3660031901126102dc57600354611555816123cd565b90611563604051928361238d565b80825260208201908160035f525f516020612d5f5f395f51905f525f915b8383106115f6578486604051918291602083019060208452518091526040830191905f5b8181106115b3575050500390f35b918094509290925181905f915b600483106115e057505050602060806001920194019101918493926115a5565b60208060019284518152019201920191906115c0565b6040515f83825b600483106116295750505060206001928261161b608060049561238d565b815201920192019190611581565b60016020819284548152019201920191906115fd565b346102dc5760203660031901126102dc576001600160a01b03611660612345565b165f526014602052602060ff60405f2054166040519015158152f35b346102dc5760203660031901126102dc5760043567ffffffffffffffff81116102dc576116ad9036906004016123e5565b6116b781516127fb565b905f5b815160ff8216908110156116f557908160ff6116e7610f28826116e06116f09789612752565b511661263f565b91169052612621565b6116ba565b604051806102d8868261244a565b346102dc5760403660031901126102dc57602061172f6117216123af565b61172961235b565b906127cd565b6040519015158152f35b346102dc5760603660031901126102dc5736602312156102dc5760405161176160608261238d565b80366064116102dc576004905b606482106119295782335f52600a60205260ff60405f205416156105a95760ff60135460081c1660068110156104865760050361191a575f5b60ff8116600381101561182e575f905f5b600560ff8216106117e5575b5050156117d65760010160ff166117a7565b6361a42ca960e01b5f5260045ffd5b60ff6117f58296939495966124d4565b90549060031b1c1660ff61180985856127aa565b51161461182057909392919060010160ff166117b8565b5092915050600183806117c4565b5f835b60ff821691600383101561189e57611848816127bb565b60ff8116600381101561188f5760ff61186e8161186588886127aa565b511692866127aa565b5116146118805760010160ff16611848565b6324329edd60e01b5f5260045ffd5b505060010160ff169150611831565b5060ff60406118ac33612b72565b83515f918252601660209081528383208054601087811b19909116938716901b92909217909155808501518383208054601887811b19909116928716901b91909117905591909301516040909320805464ff00000000191664ff000000009490931690911b92909216179055005b638f86c6b360e01b5f5260045ffd5b60208091611936846123bf565b81520191019061176e565b346102dc5760803660031901126102dc5761195a6123af565b60603660231901126102dc576001600160a01b03611977336128a4565b5116156105a95760405161198a81612371565b6024356001600160a01b03811681036102dc57815260403660431901126102dc57610ab5916040516119bb81612371565b604435815260643560208201526020830152612c2b565b346102dc575f3660031901126102dc57600d546001600160a01b0316611e82576119fa612a9a565b8051611a05816123cd565b90611a13604051928361238d565b808252611a22601f19916123cd565b015f5b818110611e605783518484611a39836123cd565b92611a47604051948561238d565b808452611a56601f19916123cd565b015f5b818110611e0f5750508151611a6d816123cd565b90611a7b604051928361238d565b808252611a8a601f19916123cd565b0136602083013773__$91e59b456366460d377a1e1f559df829b8$__935f5b8451811015611cfc57611acf6001600160a01b03611ac78388612752565b515116612b72565b90815f526016602052611aec611ae760405f20612766565b61283e565b611af68287612752565b52611b018186612752565b50611b0c8186612752565b516040516329234ebb60e21b8152905f90600483015b60058310611ce3575050506101408160a4818b5af4908115610761575f91611c34575b50611b508285612752565b52611b5b8184612752565b50611b668184612752565b51604051631766605b60e21b815292905f600485015b60058210611bfd57505050602083610144818b5af48015610761575f90611bcb575b60019350611bac8387612752565b52611bb78286612752565b51905f52600c60205260405f205501611aa9565b506020833d8211611bf5575b81611be46020938361238d565b810103126102dc5760019251611b9e565b3d9150611bd7565b8251805190600d82101561048657602091835201519060048210156104865760408160019360208094015201930191019091611b7c565b90506101403d8111611cdc575b611c4b818361238d565b8101610140828203126102dc5780601f830112156102dc5760405191611c7260a08461238d565b82916101408201918183116102dc57925b828410611c94575050505088611b45565b6040848303126102dc5760405190611cab82612371565b8451600d8110156102dc57825260208501519060048210156102dc5782602092836040950152815201930192611c83565b503d611c41565b60208060019260ff855116815201920192019190611b22565b600b545f90869060ff168560015b828110611de357611d266001600160a01b03611ac78787612752565b5f52600960205260405f2080600d03611d9a575b505f5b60ff600b5416811015611d76575f818152600960209081526040808320546001600160a01b031683526010909152812055600101611d3d565b611d7e61291b565b600d546001600160a01b03165f90815260106020526040902055005b60018060a01b038154166bffffffffffffffffffffffff60a01b600d541617600d55600181019081600e03611dd0575b50611d3a565b60029154600e550154600f558080611dca565b611ded8183612752565b51611df88684612752565b5110611e07575b600101611d0a565b935083611dff565b60405193949360a0611e21818361238d565b5f5b818110611e3f5750509060209182828701015201939293611a59565b602090604051611e4e81612371565b5f81525f838201528185015201611e23565b60209060a060405190611e73818361238d565b36823782828601015201611a25565b6373411a2f60e11b5f5260045ffd5b346102dc5760203660031901126102dc576020611eb4611eaf6123af565b61263f565b60ff60405191168152f35b346102dc5760203660031901126102dc57600435335f52600a60205260ff60405f205416156105a957611ef133612bbf565b60125481106121b857611f02612bf6565b335f526014602052600160ff60405f2054161515146121a95760ff60135460081c1660068110156104865760051461219a5760115460ff81165f1960ff600b54160160ff811161049a5760ff16810361218057505060ff196011541660115560ff60135460081c166006811015610486578061203657505f61ff0019600860ff198360015b60ff600b5416861015611fe85760ff600291875f52601660205260405f2085815416838316861b179055611fba816127bb565b885f52601660205260405f209083898354169116881b179055160160ff811161049a57600190950194611f87565b935050505060ff91501660ff19601854161760185561010061ff001960135416176013555b335f52601060205260405f20612024828254612632565b9055601254811161203157005b601255005b600181036120ae575061020061ff0019601354161760135560ff601854165f905b600360ff8316106120775760ff91501660ff19601854161760185561200d565b60016120a582610a9760ff9461208c876124d4565b90919060ff8084549260031b9316831b921b1916179055565b92011690612057565b6002810361210e575060ff601854166003905b600460ff8316106120f05760ff91501660ff19601854161760185561030061ff0019601354161760135561200d565b600161210582610a9760ff9461208c876124d4565b920116906120c1565b60030361216c5760ff601854166004905b600560ff83161061214e5760ff91501660ff19601854161760185561040061ff0019601354161760135561200d565b600161216382610a9760ff9461208c876124d4565b9201169061211f565b61050061ff0019601354161760135561200d565b61218b60ff91612621565b169060ff19161760115561200d565b6308426a3f60e11b5f5260045ffd5b6319afbeb360e01b5f5260045ffd5b639de3d44160e01b5f5260045ffd5b346102dc5760603660031901126102dc576040516121e481612371565b6004356001600160a01b03811681036102dc57815260403660231901126102dc5760405161221181612371565b60243581526044356020820152602082015260018060a01b038151165f52600a60205260ff60405f2054166122a45760ff601354166107b05760ff600b54165f5260096020526122648160405f206125eb565b600b5460ff612274818316612621565b60ff19928316911617600b5590516001600160a01b03165f908152600a6020526040902080549091166001179055005b630a370ad760e41b5f5260045ffd5b346102dc575f3660031901126102dc576122cb61258f565b5060ff601154165f5260096020526060610f8c60405f206125ba565b346102dc575f3660031901126102dc5760ff60135460081c166040516006821015610486576020918152f35b346102dc5760203660031901126102dc5761232f610fcf612345565b5f52600c602052602060405f2054604051908152f35b600435906001600160a01b03821682036102dc57565b602435906001600160a01b03821682036102dc57565b6040810190811067ffffffffffffffff82111761134057604052565b90601f8019910116810190811067ffffffffffffffff82111761134057604052565b6004359060ff821682036102dc57565b359060ff821682036102dc57565b67ffffffffffffffff81116113405760051b60200190565b9080601f830112156102dc5781356123fc816123cd565b9261240a604051948561238d565b81845260208085019260051b8201019283116102dc57602001905b8282106124325750505090565b6020809161243f846123bf565b815201910190612425565b60206040818301928281528451809452019201905f5b81811061246d5750505090565b825160ff16845260209384019390920191600101612460565b919060a08301925f905b6005821061249d57505050565b60208060019260ff865116815201930191019091612490565b906040516124c381612371565b602060018294805484520154910152565b906005821015610aa157601f8260051c601701921690565b9190916005831015610aa157601f908360051c01921690565b90602080835192838152019201905f5b8181106125225750505090565b8251805185526020908101518186015260409094019390920191600101612515565b60409060031901126102dc576004359060243590565b8054821015610aa1575f52600360205f20910201905f90565b600354811015610aa15760035f5260205f209060021b01905f90565b6040519061259c82612371565b5f82526040516020836125ae83612371565b5f83525f828401520152565b906040516125c781612371565b82546001600160a01b031681529182906020906125e6906001016124b6565b910152565b815181546001600160a01b0319166001600160a01b03919091161781556020918201518051600183015590910151600290910155565b60ff1660ff811461049a5760010190565b9190820180921161049a57565b612648816129ca565b9060018060a01b035f54169061265d81612573565b505491600161266b83612573565b5001546003612687600261267e86612573565b50015494612573565b5001549460405190608082019082821067ffffffffffffffff83111761134057602096612704926040528352868301938452604083019586526060830197885260405197889687958695636e9ff41d60e11b875251600487015251602486015251604485015251606484015260a0608484015260a4830190612505565b03915afa908115610761575f91612719575090565b90506020813d60201161274a575b816127346020938361238d565b810103126102dc575160ff811681036102dc5790565b3d9150612727565b8051821015610aa15760209160051b010190565b9060ff60405192548181168452818160081c166020850152818160101c166040850152818160181c16606085015260201c1660808301526127a860a08361238d565b565b906003811015610aa15760051b0190565b60ff60019116019060ff821161049a57565b60ff165f9081526006602090815260408083206001600160a01b039485168085529252909120549091161490565b90612805826123cd565b612812604051918261238d565b8281528092612823601f19916123cd565b0190602036910137565b906005811015610aa15760051b0190565b9060a09081604051612850828261238d565b36903760405191612861818461238d565b3683375f5b60ff8116600581101561289d5760ff91818361289261288b826116e06001978c61282d565b928861282d565b911690520116612866565b5050915090565b906128ad61258f565b506128b661258f565b915f9060ff600b5416915b60ff811683811015612915575f818152600960205260409020546001600160a01b038481169116146128f9575060010160ff166128c1565b9394505050505f52600960205261291260405f206125ba565b90565b50505050565b600b545f9060ff16815b60ff8316828110156129685761295f60ff926001925f526009602052828060a01b0360405f2054165f52601060205260405f205490612632565b93011691612925565b5091505090565b90612979826123cd565b612986604051918261238d565b8281528092612997601f19916123cd565b01905f5b8281106129a757505050565b6020906040516129b681612371565b5f81525f838201528282850101520161299b565b60ff165f52600560205260405f2080546129e3816123cd565b916129f1604051938461238d565b81835260208301905f5260205f205f915b838310612a615750505050612a17815161296f565b5f5b825160ff821690811015612a5a5790612a4f826020612a3b612a559588612752565b510151612a488287612752565b5284612752565b50612621565b612a19565b5050905090565b60036020600192612a71856125ba565b815201920192019190612a02565b5f19811461049a5760010190565b9190820391821161049a57565b60ff600b5416601554612aad8183612a8d565b90612ab7826123cd565b91612ac5604051938461238d565b808352612ad4601f19916123cd565b015f5b818110612b5b5750505f5b612aec8285612a8d565b811015612a5a5790600182612aec935f526009602052818060a01b0360405f2054165f52601460205260ff60405f20541615612b2c575b01909150612ae2565b805f526009602052612b4060405f206125ba565b612b4a8287612752565b52612b558186612752565b50612b23565b602090612b6661258f565b82828701015201612ad7565b600b5460ff16905f5b828110612b915763abca351760e01b5f5260045ffd5b5f818152600960205260409020546001600160a01b03838116911614612bb957600101612b7b565b91505090565b60115460ff165f908152600960205260409020546001600160a01b03908116911603612be757565b6351ddd2a960e11b5f5260045ffd5b60085460ff600b541603612c0657565b6358a55cfb60e11b5f5260045ffd5b818110612c20575050565b5f8155600101612c15565b60ff16805f52600560205260405f20908154612c46816123cd565b92612c54604051948561238d565b81845260208401905f5260205f205f915b838310612d4057505050505f5b825160ff821690811015612cc4576001600160a01b0390612c939085612752565b515185516001600160a01b0316911614612cb557612cb090612621565b612c72565b633075ef8760e21b5f5260045ffd5b5050919050815f52600560205260405f208054600160401b81101561134057612cf29160018201815561255a565b929092612d2d57612d06826127a8946125eb565b5f90815260066020908152604080832084516001600160a01b0316845290915290206125eb565b634e487b7160e01b5f525f60045260245ffd5b60036020600192612d50856125ba565b815201920192019190612c6556fec2575a0e9e593c00f959f8c92f12db2869c3395a3b0502d05e2516446f71f85b8a35acfbc15ff81a39ae7d344fd709f28e8600b4aa8c65c6b64bfe7fe36bd19ba26469706673582212209eb8703b179c954e298a85f63dde4a6ae7d3dabcaf5aecd6d5eb6989f86f5cf764736f6c634300081e0033","linkReferences":{"src/libraries/TexasPoker.sol":{"TexasPoker":[{"start":7214,"length":20}]}}},"methodIdentifiers":{"_bets(address)":"87d68367","_communityCards(uint256)":"757cde8e","_currentRound()":"03fac106","_gameStarted()":"435c0878","_highestBet()":"793c6383","_isFolded(address)":"2658e4d9","_isPlayer(address)":"398cedf4","_nextBet()":"812b5488","_nextCard()":"83aff57a","_playerCards(uint256,uint256)":"dd34d732","_players(uint256)":"41587823","_revealTokens(uint256,uint256)":"912381b6","_revealTokensForUser(uint256,address)":"f9be6dc0","_shuffled(address)":"883984d1","_totalFolds()":"d298a6d8","_totalPlayers()":"ae4d9dc7","_totalShuffles()":"40b55274","_weights(uint256)":"f3f03a61","addMultipleRevealTokens(uint8[],(address,(uint256,uint256))[])":"92861cb6","addRevealToken(uint8,(address,(uint256,uint256)))":"14debffe","chooseCards(uint8[3])":"1a6dab92","deck(uint256,uint256)":"d34544cd","declareWinner()":"14034bd2","fold()":"e684f46a","gameKey()":"33d4a797","getAllWeights()":"75ad6178","getCommunityCards()":"74844e19","getDeck()":"33943474","getPendingCommunityRevealTokens(address)":"43453d4d","getPendingPlayerRevealTokens(address)":"f1169f47","getPlayer(address)":"5c12cd4b","getPlayerCards(address)":"ad5c21d9","getPlayerRevealedCards(address)":"489f29d4","getPlayerWeight(address)":"02ccf95b","getPlayersInGame()":"e7cda31c","getPotAmount()":"63898988","getPublicKeyCommitment()":"c17573f2","getRevealPoints(uint8)":"7a175574","getRevealTokens(uint8)":"708ac02f","getRevealedCommunityCards()":"6eed8b42","hasRevealToken(uint8,address)":"201de725","initShuffle(uint256[],uint256[4][52])":"33f1c820","joinGame((address,(uint256,uint256)))":"074a13b4","nextPlayer()":"04a93605","placeBet(uint256)":"10fe7c48","publicKeyCommitment(uint256)":"c5912447","revealCard(uint8)":"120b7527","revealMultiple(uint8[])":"21cff78b","revealMultipleCards(uint8[5])":"3652ebc9","revealVerifier()":"df080a35","shuffle(uint256[4][52])":"3ff242e6","startGame()":"d65ab5f2","winner()":"dfbf53ae"},"id":30}