{"abi":[{"type":"constructor","inputs":[],"stateMutability":"nonpayable"},{"type":"function","name":"_games","inputs":[{"name":"","type":"uint256","internalType":"uint256"}],"outputs":[{"name":"","type":"address","internalType":"address"}],"stateMutability":"view"},{"type":"function","name":"_nextGameId","inputs":[],"outputs":[{"name":"","type":"uint256","internalType":"uint256"}],"stateMutability":"view"},{"type":"function","name":"createGame","inputs":[{"name":"salt","type":"bytes32","internalType":"bytes32"},{"name":"_revealVerifier","type":"address","internalType":"address"},{"name":"_initialPlayer","type":"tuple","internalType":"struct Player","components":[{"name":"addr","type":"address","internalType":"address"},{"name":"publicKey","type":"tuple","internalType":"struct Point","components":[{"name":"x","type":"uint256","internalType":"uint256"},{"name":"y","type":"uint256","internalType":"uint256"}]}]}],"outputs":[{"name":"","type":"address","internalType":"address"}],"stateMutability":"nonpayable"},{"type":"function","name":"getGameByteCode","inputs":[{"name":"_revealVerifier","type":"address","internalType":"address"},{"name":"_initialPlayer","type":"tuple","internalType":"struct Player","components":[{"name":"addr","type":"address","internalType":"address"},{"name":"publicKey","type":"tuple","internalType":"struct Point","components":[{"name":"x","type":"uint256","internalType":"uint256"},{"name":"y","type":"uint256","internalType":"uint256"}]}]}],"outputs":[{"name":"","type":"bytes","internalType":"bytes"}],"stateMutability":"pure"},{"type":"error","name":"Create2EmptyBytecode","inputs":[]},{"type":"error","name":"FailedDeployment","inputs":[]},{"type":"error","name":"InsufficientBalance","inputs":[{"name":"balance","type":"uint256","internalType":"uint256"},{"name":"needed","type":"uint256","internalType":"uint256"}]}],"bytecode":{"object":"0x60808060405234601557613c0c908161001a8239f35b5f80fdfe6080806040526004361015610012575f80fd5b5f3560e01c9081630e2367921461025c5750806334719f5b1461012f57806341eb8b8b146100fe57636ecbd40314610048575f80fd5b346100fa5760803660031901126100fa576004356001600160a01b03811681036100fa5760603660231901126100fa5760405161008481610276565b6024356001600160a01b03811681036100fa57815260403660431901126100fa576100ce60409160209383516100b981610276565b604435815260643586820152858301526102c8565b815192839181835280519182918282860152018484015e5f828201840152601f01601f19168101030190f35b5f80fd5b346100fa5760203660031901126100fa576004355f525f602052602060018060a01b0360405f205416604051908152f35b346100fa5760a03660031901126100fa576024356001600160a01b03811681036100fa5760603660431901126100fa5760405161016b81610276565b6044356001600160a01b03811681036100fa57815260403660631901126100fa576101b39160405161019c81610276565b6064358152608435602082015260208301526102c8565b80511561024d578051600435916020015ff53d1519811516610242576001600160a01b03168015610233576001545f525f60205260405f20816bffffffffffffffffffffffff60a01b825416179055600154905f19821461021f57600160209201600155604051908152f35b634e487b7160e01b5f52601160045260245ffd5b63b06ebf3d60e01b5f5260045ffd5b6040513d5f823e3d90fd5b631328927760e21b5f5260045ffd5b346100fa575f3660031901126100fa576020906001548152f35b6040810190811067ffffffffffffffff82111761029257604052565b634e487b7160e01b5f52604160045260245ffd5b90601f8019910116810190811067ffffffffffffffff82111761029257604052565b6040516138749261035f926020916102e2868401856102a6565b8584528284019561036387398280604051928184019460018060a01b0316855260018060a01b038151166040850152015180516060840152015160808201526080815261033060a0826102a6565b6040519586945180918587015e840190838201905f8252519283915e01015f815203601f1981018352826102a6565b9056fe6080604052346101535760405161387438819003601f8101601f191683016001600160401b038111848210176101575783928291604052833981010390608082126101535761004d8161018a565b906060601f1984011261015357604061006461016b565b936100716020840161018a565b8552603f19011261015357606061008661016b565b9160408101518352015160208201526020830190815260ff600b54165f5260096020526002602060405f209260018060a01b0386511660018060a01b03198554161784555180516001850155015191015560018060a01b031660018060a01b03195f5416175f55600b5460ff811660ff811461013f57600160ff9101169060ff191617600b5560018060a01b039051165f52600a60205260405f20600160ff19825416179055426013556040516136d5908161019f8239f35b634e487b7160e01b5f52601160045260245ffd5b5f80fd5b634e487b7160e01b5f52604160045260245ffd5b60408051919082016001600160401b0381118382101761015757604052565b51906001600160a01b03821682036101535756fe60806040526004361015610010575b005b5f3560e01c806302ccf95b146123eb57806303fac106146123bf57806304a936051461238b578063074a13b41461229f57806310fe7c481461215c578063120b75271461212e57806314034bd214611df357806314debffe14611d625780631a6dab9214611aff5780631d0b073214611ac2578063201de72514611a8c57806321cff78b14611a055780632658e4d9146119c857806333943474146118c257806333d4a7971461189e57806333f1c820146116dd5780633652ebc914611668578063398cedf41461162b5780633ff242e6146114ff57806340b55274146114e257806341587823146114a957806343453d4d14611400578063435c0878146113de578063489f29d41461133c5780634b79fc44146113215780635c12cd4b146112d7578063612bec72146112ba57806363898988146112a05780636eed8b4214611205578063708ac02f1461112a57806374844e19146110c3578063757cde8e1461109957806375ad617814610f6f578063793c638314610f525780637a17557414610f1a578063810ee87414610efd578063812b548814610edd57806383aff57a14610ebd57806387d6836714610e85578063883984d114610e48578063912381b614610e0257806392861cb614610ca957806393cbc99c14610b7d578063ad5c21d914610b28578063ae4d9dc714610b08578063b401faf114610a6b578063c17573f2146109c8578063c59124471461098b578063d298a6d81461096e578063d34544cd14610934578063d65ab5f2146107db578063dac6270d146107b9578063dd34d73214610777578063df080a3514610750578063dfbf53ae146106f2578063e684f46a14610571578063e7cda31c146104f6578063f1169f4714610352578063f3f03a61146103285763f9be6dc00361000e5734610324576040366003190112610324576102c1612433565b6004355f52600660205260405f209060018060a01b03165f5260205260405f206102f66001808060a01b03835416920161258e565b604080516001600160a01b0390931683528151602080850191909152909101519082015280606081015b0390f35b5f80fd5b34610324576020366003190112610324576004355f52600c602052602060405f2054604051908152f35b346103245760203660031901126103245761036b61241d565b600b549060ff82169160011b6101fe60fe8216911681036104e25761038f90612907565b5f929091906001600160a01b038216845b8281106103b557604051806103208782612522565b5f818152600960205260409020546001600160a01b0316821461044e57805f5260176020526103e660405f2061294d565b5f5b600281106103fc5750506001905b016103a0565b6104138660ff61040c8486612b17565b5116612ae9565b15610421575b6001016103e8565b9661044660019160ff6104348b86612b17565b5116610440828b612939565b52612ace565b979050610419565b60ff60145460081c1660068110156104ce57600514610470575b6001906103f6565b805f52601760205261048460405f2061294d565b5f5b60028110610495575050610468565b6104a58660ff61040c8486612b17565b156104b3575b600101610486565b966104c660019160ff6104348b86612b17565b9790506104ab565b634e487b7160e01b5f52602160045260245ffd5b634e487b7160e01b5f52601160045260245ffd5b34610324575f3660031901126103245761050e612da1565b6040518091602082016020835281518091526020604084019201905f5b818110610539575050500390f35b825180516001600160a01b0316855260209081015180518287015281015160408601528695506060909401939092019160010161052b565b34610324575f36600319011261032457335f52600a60205260ff60405f205416156106e35760145460ff8116156106d45760085460ff600b5416116106c55760081c60ff1660068110156104ce576005146106b65760ff601154165f5260096020523360018060a01b0360405f205416036106a757335f52601560205260ff60405f20541661069857335f52601560205260405f20600160ff1982541617905561061c601654612ace565b806016554260135560115460ff6106348183166126f9565b169060ff19161760115560ff61064d81600b5416612d69565b1614610677575b60115460ff600b541660ff82161461066857005b60ff191660115561000e612ec6565b61068b61050061ff00196014541617601455565b61069361347e565b610654565b633deab74560e11b5f5260045ffd5b6351ddd2a960e11b5f5260045ffd5b6308426a3f60e11b5f5260045ffd5b6358a55cfb60e11b5f5260045ffd5b633a5f7b5760e01b5f5260045ffd5b63abca351760e01b5f5260045ffd5b34610324575f36600319011261032457600d54604051906001600160a01b031661071b82612449565b600e548252600f546020808401918252604080516001600160a01b039490941684529351908301525191810191909152606090f35b34610324575f366003190112610324575f546040516001600160a01b039091168152602090f35b34610324576107853661261c565b905f52601760205260405f20906005811015610324576107a960ff916020936125c4565b90549060031b1c16604051908152f35b34610324575f3660031901126103245760206107d3612d7b565b604051908152f35b34610324575f36600319011261032457335f52600a60205260ff60405f205416156106e35760145460ff81166109255760ff600b541690600282106109165760ff19166001176014554260135561083181612c59565b905f5b8181106108e1575f546040805163f668237d60e01b8152602060048201529182906001600160a01b0316818061086d602482018a6125dd565b03915afa80156108d6575f9061088c575b805160015560200151600255005b506040813d6040116108ce575b816108a660409383612465565b810103126103245760209081604051916108bf83612449565b8051835201518282015261087e565b3d9150610899565b6040513d5f823e3d90fd5b806001915f5260096020526108fa8260405f200161258e565b6109048286612939565b5261090f8185612939565b5001610834565b63f770074360e01b5f5260045ffd5b63ba26162b60e01b5f5260045ffd5b34610324576109423661261c565b90600354811015610324576109569061264b565b50906004811015610324576020910154604051908152f35b34610324575f366003190112610324576020601654604051908152f35b34610324576020366003190112610324576004356004548110156103245760209060045f525f5160206136805f395f51905f520154604051908152f35b34610324575f366003190112610324576040518060206004549283815201809260045f525f5160206136805f395f51905f52905f5b818110610a555750505081610a13910382612465565b604051918291602083019060208452518091526040830191905f5b818110610a3c575050500390f35b8251845285945060209384019390920191600101610a2e565b82548452602090930192600192830192016109fd565b34610324575f36600319011261032457600d546001600160a01b03168015610af9573303610aea57335f52601060205260405f20548015610adb575f808080933382526010602052816040812055335af1610ac4612a6c565b5015610acc57005b6312171d8360e31b5f5260045ffd5b63275e076760e01b5f5260045ffd5b6330c6392160e11b5f5260045ffd5b638f86c6b360e01b5f5260045ffd5b34610324575f36600319011261032457602060ff600b5416604051908152f35b3461032457602036600319011261032457610b5b610b4461241d565b60a0604051610b538282612465565b369037612e79565b5f526017602052610320610b7160405f2061294d565b6040519182918261255e565b34610324575f36600319011261032457335f52600a60205260ff60405f205416156106e35760145460ff8116156106d45760085460ff600b5416116106c55760081c60ff1660068110156104ce576005146106b65760ff601154165f526009602052610beb60405f20612692565b601354607881018091116104e257421115610c9a5780516001600160a01b03165f9081526015602052604090205460ff166106985780516001600160a01b03165f908152601560205260409020805460ff19166001179055601654610c4f90612ace565b601655516001600160a01b03165f908152601060205260408120554260135560115460ff610c7e8183166126f9565b169060ff19161760115560165460ff61064d81600b5416612d69565b6332fc128560e01b5f5260045ffd5b346103245760403660031901126103245760043567ffffffffffffffff811161032457610cda9036906004016124bd565b6024359067ffffffffffffffff821161032457366023830112156103245781600401359167ffffffffffffffff831161032457366024606085028301011161032457335f52600a60205260ff60405f205416156106e35782825103610df3575f5b82519060ff81169182101561000e5760ff610d568386612939565b51169185811015610ddf57606002830160231981360301606081126103245760405190610d8282612449565b6024830135906001600160a01b0382168203610324576040918352601f19011261032457610dda93610dd592606460405191610dbd83612449565b6044810135835201356020820152602083015261352c565b6126f9565b610d3b565b634e487b7160e01b5f52603260045260245ffd5b637c7e82a760e01b5f5260045ffd5b3461032457610e103661261c565b905f52600560205260405f2090815481101561032457610e2f91612632565b5080546001600160a01b0316906102f69060010161258e565b34610324576020366003190112610324576001600160a01b03610e6961241d565b165f526007602052602060ff60405f2054166040519015158152f35b34610324576020366003190112610324576001600160a01b03610ea661241d565b165f526010602052602060405f2054604051908152f35b34610324575f36600319011261032457602060ff60195416604051908152f35b34610324575f36600319011261032457602060ff60115416604051908152f35b34610324575f366003190112610324576020601b54604051908152f35b3461032457602036600319011261032457610320610f3e610f39612487565b612cb4565b6040519182916020835260208301906125dd565b34610324575f366003190112610324576020601254604051908152f35b34610324575f3660031901126103245760ff600b5416610f8e816124a5565b90610f9c6040519283612465565b808252601f19610fab826124a5565b015f5b8181106110765750505f5b60ff81168281101561101c5760ff91611014826001935f526009602052838060a01b0360405f205416815f52600c60205260405f205460405191610ffc83612449565b8252602082015261100d8289612939565b5286612939565b500116610fb9565b836040518091602082016020835281518091526020604084019201905f5b818110611048575050500390f35b825180516001600160a01b03168552602090810151818601528695506040909401939092019160010161103a565b60209060405161108581612449565b5f81525f8382015282828701015201610fae565b346103245760203660031901126103245760043560058110156103245760ff6107a96020926125ac565b34610324575f3660031901126103245760a06040516110e28282612465565b36903761032060405160ff6018548181168352818160081c166020840152818160101c166040840152818160181c16606084015260201c166080820152610b7160a082612465565b346103245760203660031901126103245760ff611145612487565b165f52600560205260405f2080549061115d826124a5565b9161116b6040519384612465565b8083526020830180925f5260205f205f915b8383106111e7578486604051918291602083019060208452518091526040830191905f5b8181106111af575050500390f35b825180516001600160a01b031685526020908101518051828701528101516040860152869550606090940193909201916001016111a1565b600360206001926111f785612692565b81520192019201919061117d565b34610324575f3660031901126103245760405161122360c082612465565b6005815260a03660208301375f5b60ff81166005811015611292578160019160ff61124e81956125ac565b90549060031b1c16611263575b500116611231565b8361128861128182611274866125ac565b90549060031b1c16612717565b9287612939565b911690528461125b565b604051806103208582612522565b34610324575f3660031901126103245760206107d3612c05565b34610324575f366003190112610324576020601354604051908152f35b346103245760203660031901126103245760606112fa6112f561241d565b612b8e565b6040805182516001600160a01b031681526020928301518051848301529092015190820152f35b34610324575f36600319011261032457602060405160788152f35b346103245760203660031901126103245761135d61135861241d565b612e79565b60405161136b60c082612465565b6005815260a03660208301375f5b60ff811660058110156112925760ff91600191855f526017602052836113a28360405f206125c4565b90549060031b1c166113b7575b500116611379565b855f526017602052836113d4611281826112748660405f206125c4565b91169052856113af565b34610324575f36600319011261032457602060ff601454166040519015158152f35b346103245760203660031901126103245761141961241d565b60405161142760c082612465565b6005815260a03660208301375f5b60ff81166005811015611292578160019160ff61145281956125ac565b90549060031b1c16611467575b500116611435565b6114828685611475856125ac565b90549060031b1c16612ae9565b61145f576114a284611493846125ac565b90549060031b1c169186612939565b528561145f565b34610324576020366003190112610324576004355f90815260096020526040902080546001600160a01b0316906102f69060010161258e565b34610324575f366003190112610324576020600854604051908152f35b3461032457611a003660031901126103245736611a041161032457335f52600a60205260ff60405f205416156106e35760035460348103610324576034600355806034106115c5575b50600460035f525f5160206136605f395f51905f525f915b6034831061159157611573600854612ace565b600855335f908152600760205260409020805460ff19166001179055005b805f5b600481106115b15750506004608060019201920192019190611560565b813584820155602090910190600101611594565b6001600160fe1b03811681036104e25760021b5f5160206136605f395f51905f52017fc2575a0e9e593c00f959f8c92f12db2869c3395a3b0502d05e2516446f71f92b5b8181106116165750611548565b80611625600480930182613468565b01611609565b34610324576020366003190112610324576001600160a01b0361164c61241d565b165f52600a602052602060ff60405f2054166040519015158152f35b346103245760a03660031901126103245736602312156103245760405161169060a082612465565b803660a411610324576004905b60a482106116b157610320610b7184612b28565b602080916116be84612497565b81520191019061169d565b634e487b7160e01b5f52604160045260245ffd5b3461032457611a203660031901126103245760043567ffffffffffffffff811161032457366023820112156103245780600401359067ffffffffffffffff8211610324573660248360051b830101116103245736611a241161032457335f52600a60205260ff60405f205416156106e357600354603460035580603410611838575b505f5160206136605f395f51905f525f60245b6034821061180457505050600160401b82116116c957602490600454836004558084106117d6575b50019060045f525f5b8181106117b557611573600854612ace565b60019060208435940193815f5160206136805f395f51905f520155016117a3565b6117fe905f5160206136805f395f51905f5201845f5160206136805f395f51905f5201613468565b8361179a565b805f5b600481106118245750506004608060019201930191019091611772565b600190602083359301928187015501611807565b6001600160fe1b03811681036104e25760021b5f5160206136605f395f51905f52017fc2575a0e9e593c00f959f8c92f12db2869c3395a3b0502d05e2516446f71f92b5b818110611889575061175f565b80611898600480930182613468565b0161187c565b34610324575f36600319011261032457604060015460025482519182526020820152f35b34610324575f366003190112610324576003546118de816124a5565b906118ec6040519283612465565b80825260208201908160035f525f5160206136605f395f51905f525f915b83831061197f578486604051918291602083019060208452518091526040830191905f5b81811061193c575050500390f35b918094509290925181905f915b60048310611969575050506020608060019201940191019184939261192e565b6020806001928451815201920192019190611949565b6040515f83825b600483106119b2575050506020600192826119a46080600495612465565b81520192019201919061190a565b6001602081928454815201920192019190611986565b34610324576020366003190112610324576001600160a01b036119e961241d565b165f526015602052602060ff60405f2054166040519015158152f35b346103245760203660031901126103245760043567ffffffffffffffff811161032457611a369036906004016124bd565b611a408151612907565b905f5b815160ff821690811015611a7e57908160ff611a7061128182611a69611a799789612939565b5116612717565b911690526126f9565b611a43565b604051806103208682612522565b34610324576040366003190112610324576020611ab8611aaa612487565b611ab2612433565b90612ae9565b6040519015158152f35b34610324576020366003190112610324576001600160a01b03611ae361241d565b165f52601a602052602060ff60405f2054166040519015158152f35b3461032457606036600319011261032457366023121561032457604051611b27606082612465565b8036606411610324576004905b60648210611d4a5782335f52600a60205260ff60405f205416156106e35760145460ff8116156106d45760081c60ff1660068110156104ce57600503610af9575f5b60ff81166003811015611bfd575f905f5b600560ff821610611bb4575b505015611ba55760010160ff16611b76565b6361a42ca960e01b5f5260045ffd5b60ff611bc48296939495966125ac565b90549060031b1c1660ff611bd88585612aab565b511614611bef57909392919060010160ff16611b87565b509291505060018380611b93565b5f835b60ff8216916003831015611c6d57611c1781612abc565b60ff81166003811015611c5e5760ff611c3d81611c348888612aab565b51169286612aab565b511614611c4f5760010160ff16611c17565b6324329edd60e01b5f5260045ffd5b505060010160ff169150611c00565b5060ff6040611c7b33612e79565b83515f918252601760209081528383208054601087811b19909116938716901b92909217909155808501518383208054601887811b19909116928716901b91909117905591909301516040808520805464ff00000000191664ff0000000093909516841b92909216939093179055338352601a905290205460ff1615611d20575b611d0e60ff600b541660165490612adc565b601b5414611d1857005b61000e6130b4565b335f52601a60205260405f20600160ff19825416179055611d42601b54612ace565b601b55611cfc565b60208091611d5784612497565b815201910190611b34565b3461032457608036600319011261032457611d7b612487565b6060366023190112610324576001600160a01b03611d9833612b8e565b5116156106e357604051611dab81612449565b6024356001600160a01b038116810361032457815260403660431901126103245761000e91604051611ddc81612449565b60443581526064356020820152602083015261352c565b34610324575f36600319011261032457335f52600a60205260ff60405f205416156106e35760145460ff8116156106d45760081c60ff1660068110156104ce57600503610af957600d546001600160a01b031661211f57611e52612da1565b611e5c815161282a565b611e668251612884565b90611e718351612907565b73__$91e59b456366460d377a1e1f559df829b8$__925f5b855181101561200157611f0d90611eb36001600160a01b03611eab838a612939565b515116612e79565b805f526017602052611ecf611eca60405f2061294d565b612b28565b611ed98388612939565b52611ee48287612939565b50610140611ef28388612939565b51604051809581926329234ebb60e21b83526004830161255e565b03818a5af480156108d657611f61935f91611fd2575b50611f2e8386612939565b52611f398285612939565b506020611f468386612939565b5160405180958192631766605b60e21b835260048301612a1e565b03818a5af480156108d6575f90611fa0575b60019350611f818387612939565b52611f8c8286612939565b51905f52600c60205260405f205501611e89565b506020833d8211611fca575b81611fb960209383612465565b810103126103245760019251611f73565b3d9150611fac565b611ff491506101403d8111611ffa575b611fec8183612465565b810190612991565b89611f23565b503d611fe2565b5f868460015b825181101561203c5761201a8183612939565b516120258584612939565b5110612034575b600101612007565b92508261202c565b6120516001600160a01b03611eab8686612939565b5f52600960205260405f2080600d036120db575b5061206e612c05565b5f5b60ff600b54168110156120a9575f818152600960209081526040808320546001600160a01b031683526010909152812055600101612070565b5f8080808560018060a01b03600d54168252601060205280604083205560018060a01b03600d54165af1610ac4612a6c565b60018060a01b038154166001600160601b0360a01b600d541617600d55600181019081600e0361210c575b50612065565b60029154600e550154600f558080612106565b6373411a2f60e11b5f5260045ffd5b3461032457602036600319011261032457602061215161214c612487565b612717565b60ff60405191168152f35b602036600319011261032457600435335f52600a60205260ff60405f205416156106e35760145460ff8116156106d45760085460ff600b5416116106c55760081c60ff1660068110156104ce576005146106b65760ff601154165f5260096020523360018060a01b0360405f205416036106a757335f52601560205260ff60405f205416612290578034036122815761220190335f52601060205260405f205461270a565b601254811061227257335f9081526010602052604090208190556012541061225d575b4260135560115460ff6122388183166126f9565b169060ff19169080821760115560ff600b54161461225257005b60115561000e612ec6565b335f52601060205260405f2054601255612224565b639de3d44160e01b5f5260045ffd5b63368a0ac360e11b5f5260045ffd5b6319afbeb360e01b5f5260045ffd5b34610324576060366003190112610324576040516122bc81612449565b6004356001600160a01b03811681036103245781526040366023190112610324576040516122e981612449565b60243581526044356020820152602082015260018060a01b038151165f52600a60205260ff60405f20541661237c5760ff601454166109255760ff600b54165f52600960205261233c8160405f206126c3565b600b5460ff61234c8183166126f9565b60ff19928316911617600b5590516001600160a01b03165f908152600a6020526040902080549091166001179055005b630a370ad760e41b5f5260045ffd5b34610324575f366003190112610324576123a3612667565b5060ff601154165f52600960205260606112fa60405f20612692565b34610324575f3660031901126103245760ff60145460081c1660405160068210156104ce576020918152f35b346103245760203660031901126103245761240761135861241d565b5f52600c602052602060405f2054604051908152f35b600435906001600160a01b038216820361032457565b602435906001600160a01b038216820361032457565b6040810190811067ffffffffffffffff8211176116c957604052565b90601f8019910116810190811067ffffffffffffffff8211176116c957604052565b6004359060ff8216820361032457565b359060ff8216820361032457565b67ffffffffffffffff81116116c95760051b60200190565b9080601f830112156103245781356124d4816124a5565b926124e26040519485612465565b81845260208085019260051b82010192831161032457602001905b82821061250a5750505090565b6020809161251784612497565b8152019101906124fd565b60206040818301928281528451809452019201905f5b8181106125455750505090565b825160ff16845260209384019390920191600101612538565b919060a08301925f905b6005821061257557505050565b60208060019260ff865116815201930191019091612568565b9060405161259b81612449565b602060018294805484520154910152565b906005821015610ddf57601f8260051c601801921690565b9190916005831015610ddf57601f908360051c01921690565b90602080835192838152019201905f5b8181106125fa5750505090565b82518051855260209081015181860152604090940193909201916001016125ed565b6040906003190112610324576004359060243590565b8054821015610ddf575f52600360205f20910201905f90565b600354811015610ddf5760035f5260205f209060021b01905f90565b6040519061267482612449565b5f825260405160208361268683612449565b5f83525f828401520152565b9060405161269f81612449565b82546001600160a01b031681529182906020906126be9060010161258e565b910152565b815181546001600160a01b0319166001600160a01b03919091161781556020918201518051600183015590910151600290910155565b60ff1660ff81146104e25760010190565b919082018092116104e257565b61272081612cb4565b9060018060a01b035f5416906127358161264b565b50549160016127438361264b565b500154600361275f60026127568661264b565b5001549461264b565b5001549460405190608082019082821067ffffffffffffffff8311176116c9576020966127dc926040528352868301938452604083019586526060830197885260405197889687958695636e9ff41d60e11b875251600487015251602486015251604485015251606484015260a0608484015260a48301906125dd565b03915afa9081156108d6575f916127f1575090565b90506020813d602011612822575b8161280c60209383612465565b81010312610324575160ff811681036103245790565b3d91506127ff565b90612834826124a5565b6128416040519182612465565b8281528092612852601f19916124a5565b01905f5b82811061286257505050565b60209060a0604051906128758183612465565b36823782828501015201612856565b9061288e826124a5565b61289b6040519182612465565b82815280926128ac601f19916124a5565b01905f5b8281106128bc57505050565b60405160a06128cb8183612465565b5f5b8181106128e657505090602091828285010152016128b0565b6020906040516128f581612449565b5f81525f8382015281850152016128cd565b90612911826124a5565b61291e6040519182612465565b828152809261292f601f19916124a5565b0190602036910137565b8051821015610ddf5760209160051b010190565b9060ff60405192548181168452818160081c166020850152818160101c166040850152818160181c16606085015260201c16608083015261298f60a083612465565b565b90610140828203126103245780601f8301121561032457604051916129b760a084612465565b829161014082019181831161032457925b8284106129d6575050505090565b60408483031261032457604051906129ed82612449565b8451600d811015610324578252602085015190600482101561032457826020928360409501528152019301926129c8565b610140810192915f915b60058310612a3557505050565b8151805190600d8210156104ce57602091835201519060048210156104ce5760408160019360208094015201920192019190612a28565b3d15612aa6573d9067ffffffffffffffff82116116c95760405191612a9b601f8201601f191660200184612465565b82523d5f602084013e565b606090565b906003811015610ddf5760051b0190565b60ff60019116019060ff82116104e257565b5f1981146104e25760010190565b919082039182116104e257565b60ff165f9081526006602090815260408083206001600160a01b039485168085529252909120549091161490565b906005811015610ddf5760051b0190565b9060a09081604051612b3a8282612465565b36903760405191612b4b8184612465565b3683375f5b60ff81166005811015612b875760ff918183612b7c612b7582611a696001978c612b17565b9288612b17565b911690520116612b50565b5050915090565b90612b97612667565b50612ba0612667565b915f9060ff600b5416915b60ff811683811015612bff575f818152600960205260409020546001600160a01b03848116911614612be3575060010160ff16612bab565b9394505050505f526009602052612bfc60405f20612692565b90565b50505050565b600b545f9060ff16815b60ff831682811015612c5257612c4960ff926001925f526009602052828060a01b0360405f2054165f52601060205260405f20549061270a565b93011691612c0f565b5091505090565b90612c63826124a5565b612c706040519182612465565b8281528092612c81601f19916124a5565b01905f5b828110612c9157505050565b602090604051612ca081612449565b5f81525f8382015282828501015201612c85565b60ff165f52600560205260405f208054612ccd816124a5565b91612cdb6040519384612465565b81835260208301905f5260205f205f915b838310612d4b5750505050612d018151612c59565b5f5b825160ff821690811015612d445790612d39826020612d25612d3f9588612939565b510151612d328287612939565b5284612939565b506126f9565b612d03565b5050905090565b60036020600192612d5b85612692565b815201920192019190612cec565b60ff5f199116019060ff82116104e257565b601354607881018091116104e25780421015612d9c57612bfc904290612adc565b505f90565b60ff600b5416601654612db48183612adc565b90612dbe826124a5565b91612dcc6040519384612465565b808352612ddb601f19916124a5565b015f5b818110612e625750505f5b612df38285612adc565b811015612d445790600182612df3935f526009602052818060a01b0360405f2054165f52601560205260ff60405f20541615612e33575b01909150612de9565b805f526009602052612e4760405f20612692565b612e518287612939565b52612e5c8186612939565b50612e2a565b602090612e6d612667565b82828701015201612dde565b600b5460ff16905f5b828110612e985763abca351760e01b5f5260045ffd5b5f818152600960205260409020546001600160a01b03838116911614612ec057600101612e82565b91505090565b60ff60145460081c1660068110156104ce5780612f7357505f61ff0019600860ff198360015b60ff600b5416861015612f4d5760ff600291875f52601760205260405f2085815416838316861b179055612f1f81612abc565b885f52601760205260405f209083898354169116881b179055160160ff81116104e257600190950194612eec565b935050505060ff91501660ff19601954161760195561010061ff00196014541617601455565b60018103612fe8575061020061ff0019601454161760145560ff601954165f905b600360ff831610612fb15760ff91501660ff196019541617601955565b6001612fdf82610dd560ff94612fc6876125ac565b90919060ff8084549260031b9316831b921b1916179055565b92011690612f94565b60028103613045575060ff601954166003905b600460ff8316106130275760ff91501660ff19601954161760195561030061ff00196014541617601455565b600161303c82610dd560ff94612fc6876125ac565b92011690612ffb565b6003036130a05760ff601954166004905b600560ff8316106130825760ff91501660ff19601954161760195561040061ff00196014541617601455565b600161309782610dd560ff94612fc6876125ac565b92011690613056565b61298f61050061ff00196014541617601455565b600d546001600160a01b031661298f576130cc612da1565b906130d7825161282a565b906130e28351612884565b916130ed8451612907565b6001935f5b865181101561345e576131106001600160a01b03611eab838a612939565b5f5b6005811061338c575b5050851561312b576001016130f2565b50909192935b156133855773__$91e59b456366460d377a1e1f559df829b8$__5f5b8651811015613272576131a99061316f6001600160a01b03611eab838b612939565b805f526017602052613186611eca60405f2061294d565b6131908389612939565b5261319b8288612939565b50610140611ef28389612939565b0381875af480156108d6576131e2935f91613253575b506131ca8387612939565b526131d58286612939565b506020611f468387612939565b0381875af480156108d6575f90613221575b600193506132028388612939565b5261320d8287612939565b51905f52600c60205260405f20550161314d565b506020833d821161324b575b8161323a60209383612465565b8101031261032457600192516131f4565b3d915061322d565b61326c91506101403d8111611ffa57611fec8183612465565b5f6131bf565b50505090509190915f92815115610ddf5760208201519360015b83518110156132c557856132a08286612939565b51116132af575b60010161328c565b8095506132bd915083612939565b5193806132a7565b509093506132d7915061330792612939565b516020809160018060a01b038151166001600160601b0360a01b600d541617600d5501518051600e550151600f55565b61330f612c05565b5f5b60ff600b541681101561334a575f818152600960209081526040808320546001600160a01b031683526010909152812055600101613311565b505f8080809360018060a01b03600d54168252601060205280604083205560018060a01b03600d54165af161337d612a6c565b5015610acc57565b5050509050565b815f98939852601760205260ff6133a68260405f206125c4565b90549060031b1c16806133c0575b50600101969196613112565b5f52600560205260405f2080546133d6816124a5565b916133e46040519384612465565b81835260208301905f5260205f20905f905b8382106134405750505050600282105f146134345760ff61341a81600b5416612d69565b16905110613428575f6133b4565b5050505f945f8061311b565b60ff80600b541661341a565b6003602060019261345086612692565b8152019301910190916133f6565b5090919293613131565b818110613473575050565b5f8155600101613468565b600d546001600160a01b031661298f57613496612667565b600b5460ff16905f5b8281106134dc575b5061330791506020809160018060a01b038151166001600160601b0360a01b600d541617600d5501518051600e550151600f55565b805f52600960205260018060a01b0360405f2054165f52601560205260ff60405f2054161561350d5760010161349f565b9150505f52600960205261330761352660405f20612692565b5f6134a7565b60ff16805f52600560205260405f20908154613547816124a5565b926135556040519485612465565b81845260208401905f5260205f205f915b83831061364157505050505f5b825160ff8216908110156135c5576001600160a01b03906135949085612939565b515185516001600160a01b03169116146135b6576135b1906126f9565b613573565b633075ef8760e21b5f5260045ffd5b5050919050815f52600560205260405f208054600160401b8110156116c9576135f391600182018155612632565b92909261362e576136078261298f946126c3565b5f90815260066020908152604080832084516001600160a01b0316845290915290206126c3565b634e487b7160e01b5f525f60045260245ffd5b6003602060019261365185612692565b81520192019201919061356656fec2575a0e9e593c00f959f8c92f12db2869c3395a3b0502d05e2516446f71f85b8a35acfbc15ff81a39ae7d344fd709f28e8600b4aa8c65c6b64bfe7fe36bd19ba2646970667358221220ad6640a6508bc395b99f58d4d084afcab4038a8140076be52ba81c986c35773d64736f6c634300081e0033a2646970667358221220281677d97755eb6f7b8fd64611680f4fff8b9559cdbc0fa3c09a70e722b1276464736f6c634300081e0033","linkReferences":{"src/libraries/TexasPoker.sol":{"TexasPoker":[{"start":9103,"length":20},{"start":13908,"length":20}]}}},"methodIdentifiers":{"_games(uint256)":"41eb8b8b","_nextGameId()":"0e236792","createGame(bytes32,address,(address,(uint256,uint256)))":"34719f5b","getGameByteCode(address,(address,(uint256,uint256)))":"6ecbd403"},"id":32}